:020000040800F2
:1000000000300020B95A0008E5590008F3590008EB
:10001000F9590008FF590008055A000800000000BF
:100020000000000000000000000000000B5A000863
:10003000195A000800000000275A0008355A000825
:10004000095B0008095B0008095B0008095B000800
:10005000095B0008095B0008095B0008095B0008F0
:10006000095B0008095B0008095B0008095B0008E0
:10007000415A0008555A0008095B0008095B00084E
:10008000095B0008095B0008095B0008095B0008C0
:10009000095B0008095B0008095B0008095B0008B0
:1000A000095B0008095B0008095B0008095B0008A0
:1000B000095B0008095B000800000000095B0008FC
:1000C000095B00080000000000000000095B000858
:1000D00000000000095B0008095B0008095B0008DC
:1000E000095B0008095B0008000000000000000038
:1000F0000000000000000000000000000000000000
:1001000000000000000000000000000000000000EF
:100110000000000000000000695A0008855A00082D
:1001200000000000000000000000000000000000CF
:1001300000000000000000000000000000000000BF
:10014000095B0008095B000800000000095B00086B
:10015000095B0008095B0008095B0008095B0008EF
:10016000095B0008095B00080000000000000000B7
:10017000000000000000000000000000000000007F
:0801800000000000095B00080B
:1001880010B5054C237833B9044B13B10448AFF3C9
:1001980000800123237010BD0C0000200000000027
:1001A800645B000808B5034B1BB103490348AFF370
:1001B800008008BD0000000010000020645B0008FB
:1001C80081F0004102E000BF83F0004330B54FEA00
:1001D80041044FEA430594EA050F08BF90EA020F6D
:1001E8001FBF54EA000C55EA020C7FEA645C7FEA00
:1001F800655C00F0E2804FEA5454D4EB5555B8BF23
:100208006D420CDD2C4480EA020281EA030382EA93
:10021800000083EA010180EA020281EA0303362D25
:1002280088BF30BD11F0004F4FEA01314FF4801CF8
:100238004CEA113102D0404261EB410113F0004F0A
:100248004FEA03334CEA133302D0524263EB4303C1
:1002580094EA050F00F0A780A4F10104D5F1200E5F
:100268000DDB02FA0EFC22FA05F2801841F10001BA
:1002780003FA0EF2801843FA05F359410EE0A5F18E
:1002880020050EF1200E012A03FA0EFC28BF4CF0BF
:10029800020C43FA05F3C01851EBE37101F0004575
:1002A80007D54FF0000EDCF1000C7EEB00006EEB82
:1002B8000101B1F5801F1BD3B1F5001F0CD349080C
:1002C8005FEA30004FEA3C0C04F101044FEA445263
:1002D80012F5800F80F09A80BCF1004F08BF5FEAEA
:1002E800500C50F1000041EB045141EA050130BDCA
:1002F8005FEA4C0C404141EB010111F4801FA4F16D
:100308000104E9D191F0000F04BF01460020B1FAC1
:1003180081F308BF2033A3F10B03B3F120020CDAF9
:100328000C3208DD02F1140CC2F10C0201FA0CF0D7
:1003380021FA02F10CE002F11402D8BFC2F1200C3C
:1003480001FA02F120FA0CFCDCBF41EA0C019040F2
:10035800E41AA2BF01EB0451294330BD6FEA04043B
:100368001F3C1CDA0C340EDC04F11404C4F1200226
:1003780020FA04F001FA02F340EA030021FA04F338
:1003880045EA030130BDC4F10C04C4F1200220FA8F
:1003980002F001FA04F340EA0300294630BD21FACD
:1003A80004F0294630BD94F0000F83F4801306BF93
:1003B80081F480110134013D4EE77FEA645C18BF87
:1003C8007FEA655C29D094EA050F08BF90EA020F1E
:1003D80005D054EA000C04BF1946104630BD91EA16
:1003E800030F1EBF0021002030BD5FEA545C05D119
:1003F8004000494128BF41F0004130BD14F5800458
:100408003CBF01F5801130BD01F0004545F0FE41CB
:1004180041F470014FF0000030BD7FEA645C1ABF00
:10042800194610467FEA655C1CBF0B46024650EA37
:10043800013406BF52EA033591EA030F41F4002163
:1004480030BD00BF90F0000F04BF0021704730B5E9
:100458004FF4806404F132044FF000054FF00001BE
:1004680050E700BF90F0000F04BF0021704730B57F
:100478004FF4806404F1320410F0004548BF404254
:100488004FF000013EE700BF42004FEAE2014FEAA9
:1004980031014FEA02701FBF12F07F4393F07F4F84
:1004A80081F06051704792F0000F14BF93F07F4FB6
:1004B800704730B54FF4607401F0004521F00041F9
:1004C80020E700BF50EA010208BF704730B54FF07F
:1004D80000050AE050EA010208BF704730B511F084
:1004E800004502D5404261EB41014FF4806404F1BC
:1004F80032045FEA915C3FF4DCAE4FF003025FEA3E
:10050800DC0C18BF03325FEADC0C18BF033202EBC5
:10051800DC02C2F1200300FA03FC20FA02F001FA1F
:1005280003FE40EA0E0021FA02F11444C1E600BFBE
:1005380070B54FF0FF0C4CF4E06C1CEA11541DBF71
:100548001CEA135594EA0C0F95EA0C0F00F0DEF83C
:100558002C4481EA030621EA4C5123EA4C5350EA21
:10056800013518BF52EA033541F4801143F4801372
:1005780038D0A0FB02CE4FF00005E1FB02E506F003
:100588000042E0FB03E54FF00006E1FB03569CF058
:10059800000F18BF4EF0010EA4F1FF04B6F5007F5E
:1005A80064F5407404D25FEA4E0E6D4146EB0606D0
:1005B80042EAC62141EA55514FEAC52040EA5E5059
:1005C8004FEACE2EB4F1FD0C88BFBCF5E06F1ED803
:1005D800BEF1004F08BF5FEA500E50F1000041EB3A
:1005E800045170BD06F0004646EA010140EA0200E7
:1005F80081EA0301B4EB5C04C2BFD4EB0C0541EA09
:10060800045170BD41F480114FF0000E013C00F31D
:10061800AB8014F1360FDEBF002001F0004170BD41
:10062800C4F10004203C35DA0C341BDC04F114045A
:10063800C4F1200500FA05F320FA04F001FA05F2E6
:1006480040EA020001F0004221F0004110EBD370B3
:1006580021FA04F642EB06015EEA430E08BF20EADF
:10066800D37070BDC4F10C04C4F1200500FA04F382
:1006780020FA05F001FA04F240EA020001F0004114
:1006880010EBD37041F100015EEA430E08BF20EA87
:10069800D37070BDC4F1200500FA05F24EEA020ECF
:1006A80020FA04F301FA05F243EA020321FA04F0FE
:1006B80001F0004121FA04F220EA020000EBD370B5
:1006C8005EEA430E08BF20EAD37070BD94F0000FB5
:1006D8000FD101F00046400041EB010111F4801FE9
:1006E80008BF013CF7D041EA060195F0000F18BF9A
:1006F800704703F00046520043EB030313F4801FD6
:1007080008BF013DF7D043EA0603704794EA0C0F8F
:100718000CEA135518BF95EA0C0F0CD050EA4106A5
:1007280018BF52EA4306D1D181EA030101F0004122
:100738004FF0000070BD50EA410606BF104619464A
:1007480052EA430619D094EA0C0F02D150EA013656
:1007580013D195EA0C0F05D152EA03361CBF104697
:1007680019460AD181EA030101F0004141F0FE4136
:1007780041F470014FF0000070BD41F0FE4141F4BA
:10078800780170BD70B54FF0FF0C4CF4E06C1CEABA
:1007980011541DBF1CEA135594EA0C0F95EA0C0F6F
:1007A80000F0A7F8A4EB050481EA030E52EA03352A
:1007B8004FEA013100F088804FEA03334FF080554B
:1007C80045EA131343EA12634FEA022245EA111578
:1007D80045EA10654FEA00260EF000419D4208BF29
:1007E800964244F1FD0404F5407402D25B084FEAD6
:1007F8003202B61A65EB03055B084FEA32024FF482
:1008080080104FF4002CB6EB020E75EB030E22BFDE
:10081800B61A754640EA0C005B084FEA3202B6EB9E
:10082800020E75EB030E22BFB61A754640EA5C004D
:100838005B084FEA3202B6EB020E75EB030E22BFDD
:10084800B61A754640EA9C005B084FEA3202B6EBDE
:10085800020E75EB030E22BFB61A754640EADC009D
:1008680055EA060E18D04FEA051545EA16754FEAFF
:1008780006164FEAC30343EA52734FEAC2025FEA1D
:100888001C1CC0D111F4801F0BD141EA00014FF0AC
:1008980000004FF0004CB6E711F4801F04BF01437D
:1008A8000020B4F1FD0C88BFBCF5E06F3FF6AFAE99
:1008B800B5EB030C04BFB6EB020C5FEA500C50F129
:1008C800000041EB045170BD0EF0004E4EEA1131AC
:1008D80014EB5C04C2BFD4EB0C0541EA045170BDB3
:1008E80041F480114FF0000E013C90E645EA060EF7
:1008F8008DE60CEA135594EA0C0F08BF95EA0C0F25
:100908003FF43BAF94EA0C0F0AD150EA01347FF46C
:1009180034AF95EA0C0F7FF425AF104619462CE743
:1009280095EA0C0F06D152EA03353FF4FDAE1046A6
:10093800194622E750EA410618BF52EA43067FF4F7
:10094800C5AE50EA41047FF40DAF52EA43057FF487
:10095800EBAE12E74FEA410212F5001215D211D59B
:100968006FF47873B3EB625212D94FEAC12343F0A4
:10097800004343EA505311F0004F23FA02F018BF26
:10098800404270474FF00000704750EA013005D1EF
:1009980011F0004008BF6FF0004070474FF00000B2
:1009A800704700BF80B500AF084A084B1B6843F08A
:1009B80010031360032000F0C1FE002000F008F8C7
:1009C80004F07CFE0023184680BD00BF00200240D2
:1009D80080B582B000AF7860124B1A68124B1B7852
:1009E80019464FF47A73B3FBF1F3B2FBF3F31846ED
:1009F80000F0D9FE0346002B01D001230EE07B68EE
:100A08000F2B0AD8002279684FF0FF3000F0A1FEC2
:100A1800064A7B681360002300E001231846083764
:100A2800BD4680BD08000020040000200000002012
:100A380080B400AF064B1B781A46064B1B6813445C
:100A4800044A136000BFBD465DF8047B704700BFD1
:100A5800040000204C00002080B400AF034B1B684A
:100A68001846BD465DF8047B704700BF4C00002067
:100A780080B584B000AF7860FFF7EEFFB8607B68A0
:100A8800FB60FB68B3F1FF3F05D0094B1B781A46A2
:100A9800FB681344FB6000BFFFF7DEFF0246BB683C
:100AA800D21AFB689A42F7D300BF1037BD4680BD03
:100AB8000400002080B59AB000AF7860002387F862
:100AC800673000233B660023BB607B68002B01D1A5
:100AD800012372E17B681B69002B7B681B6C03F0A8
:100AE8001003002B76D17B681B6C002B52D17B68DE
:100AF80000225A647B680022DA647B6800229A64C8
:100B08007B68002283F83C20786804F0FBFD7B6852
:100B18001B689B6803F08053002B3BD1786800F07A
:100B2800DFFC034687F867307B681B6C03F0100313
:100B3800002B2FD197F86730002B2BD17B681B6CCB
:100B480023F4885323F0020343F002027B681A64FB
:100B58007B681B687A681268926822F040529A6033
:100B68007B681B687A681268926842F080529A60C3
:100B7800944B1B68944AA2FB03239A0C13469B00D0
:100B880013445B00BB6002E0BB68013BBB60BB6811
:100B9800002BF9D17B681B689B6803F08053002BFE
:100BA80007D07B681B689B6803F00053B3F1005FB4
:100BB80010D17B681B6C23F0120343F010027B6892
:100BC8001A647B685B6C43F001027B685A640123FA
:100BD80087F867307B681B6C03F01003002B40F02C
:100BE800DF8097F86730002B40F0DA807B681B685D
:100BF8009B6803F00403002B40F0D2807B681B6CD9
:100C080023F4817343F002027B681A646F4BFB651F
:100C18007B681B68B3F1A04F02D16D4BFB6002E00B
:100C28004FF0A043FB607B681B689B6803F00303DD
:100C3800012B08D17B681B681B6803F00103012B9B
:100C480001D1012300E00023002B1CD1FB68002BFD
:100C580010D0FB689B6803F00303012B07D1FB68E6
:100C68001B6803F00103012B01D1012300E00023DD
:100C7800002B08D1FB6D9B6823F440327B685B68CE
:100C88001A43FB6D9A607B685B7E5A037B685B6BDB
:100C9800012B02D04FF4805300E000231A437B68F5
:100CA800DB681A437B689B6813433A6E13433B66C1
:100CB8007B6893F82030012B1BD17B685B7E002B6F
:100CC80009D17B685B6A013B5A043B6E134343F4CA
:100CD80080333B660DE07B681B6C23F0220343F0F6
:100CE80020027B681A647B685B6C43F001027B68B6
:100CF8005A647B689B6A012B07D07B689A6A7B6879
:100D0800DB6A13433A6E13433B667B681B689B6838
:100D180003F00C03002B14D17B681A687B681B68EE
:100D2800DB6823F4804323F00203D3607B681B7ED7
:100D38009A037B6893F830305B0013433A6E134391
:100D48003B667B681A687B681B68D968214B0B4037
:100D5800396E0B43D3607B681B69012B0CD17B6810
:100D68001B687A681268126B22F00F017A68D269E0
:100D7800013A0A431A6307E07B681B687A681268BD
:100D8800126B22F00F021A637B6800225A647B6898
:100D98001B6C23F0030343F001027B681A640AE02A
:100DA8007B681B6C23F0120343F010027B681A6403
:100DB800012387F8673097F8673018466837BD46CB
:100DC80080BD00BF0800002083DE1B4300030050E5
:100DD8000001005007C0F0FF90B49AB000AF7860EF
:100DE8003960002387F867300023BB607B6893F87D
:100DF8003C30012B01D10223A3E27B68012283F856
:100E08003C207B681B689B6803F00403002B40F0C0
:100E180087823B685B68042B1CD87B6819687B68F1
:100E28001B68186B3B685A6813465B0013445B00E9
:100E38001A461F239340DB4318403B681C683B68F5
:100E48005A6813465B0013445B0004FA03F3034338
:100E58000B6363E03B685B68092B1ED87B681968E5
:100E68007B681B68586B3B685A6813465B001344E1
:100E78005B001E3B1F2202FA03F3DB4318403B686A
:100E88001C683B685A6813465B0013445B001E3BB2
:100E980004FA03F303434B6340E03B685B680E2BA3
:100EA8001ED87B6819687B681B68986B3B685A6812
:100EB80013465B0013445B003C3B1F2202FA03F31A
:100EC800DB4318403B681C683B685A6813465B0064
:100ED80013445B003C3B04FA03F303438B631DE0BC
:100EE8007B6819687B681B68D86B3B685A6813462F
:100EF8005B0013445B005A3B1F2202FA03F3DB43F7
:100F080018403B681C683B685A6813465B001344EA
:100F18005B005A3B04FA03F30343CB637B681B680B
:100F28009B6803F00C03002B40F0E5803B681B68CE
:100F3800092B1CD97B6819687B681B6898693B6812
:100F48001A6813465B0013441E3B072202FA03F398
:100F5800DB4318403B689C683B681A6813465B0093
:100F680013441E3B04FA03F303438B6119E07B68C7
:100F780019687B681B6858693B681A6813465B00E8
:100F88001344072202FA03F3DB4318403B689C68CA
:100F98003B681A6813465B00134404FA03F30343DF
:100FA8004B613B685A697B681B68DB68DB0803F0A8
:100FB80003035B0002FA03F33B663B681B69013BD2
:100FC800032B4FD801A252F823F000BFE50F000809
:100FD80007100008291000084B1000087B681A68E1
:100FE8007B681B68196E9C4B0B403968096888063A
:100FF800396E01430B4343F0004313667BE07B6883
:101008001A687B681B68596E934B0B4039680968EE
:101018008806396E01430B4343F0004353666AE088
:101028007B681A687B681B68996E8B4B0B40396824
:1010380009688806396E01430B4343F00043936601
:1010480059E07B681A687B681B68D96E824B0B4035
:10105800396809688806396E01430B4343F0004339
:10106800D36648E07B681B681B6E03F0F8423B6858
:101078001B689B069A4207D17B681B687A681268CE
:10108800126E22F000421A667B681B685B6E03F0E2
:10109800F8423B681B689B069A4207D17B681B682D
:1010A8007A681268526E22F000425A667B681B68A2
:1010B8009B6E03F0F8423B681B689B069A4207D177
:1010C8007B681B687A681268926E22F000429A6602
:1010D8007B681B68DB6E03F0F8423B681B689B0665
:1010E8009A4207D17B681B687A681268D26E22F030
:1010F8000042DA6600BF7B681B689B6803F0030345
:10110800012B08D17B681B681B6803F00103012BC6
:1011180001D1012300E00023002B40F00C813B6843
:10112800DB68012B0FD07B681B687A681268D2F8DD
:10113800B0103A681268012000FA02F2D2430A405D
:10114800C3F8B0204AE07B681B687A681268D2F856
:10115800B0103A681268012000FA02F20A43C3F894
:10116800B0203B681B68092B1CD97B6819687B6811
:101178001B6898693B681A6813465B0013441B3B5D
:10118800072202FA03F3DB4318403B689C683B687C
:101198001A6813465B0013441B3B04FA03F303432A
:1011A8008B611BE07B6819687B681B6858693B6822
:1011B8001B685A1C13465B001344072202FA03F308
:1011C800DB4318403B689C683B681B685A1C134605
:1011D8005B00134404FA03F303434B611F4BFB65A5
:1011E8003B681B68102B05D1FB6D9B6803F400035B
:1011F800002B15D03B681B68112B05D1FB6D9B6834
:1012080003F08073002B0BD03B681B68122B40F057
:101218009280FB6D9B6803F48003002B40F08B8069
:101228007B681B68B3F1A04F02D10D4BFB6002E055
:101238004FF0A043FB607B681B689B6803F00303C7
:10124800012B0FD17B681B681B6803F00103012B7E
:1012580008D1012307E000BF00F0FF83000300501E
:10126800000100500023002B50D1FB68002B10D048
:10127800FB689B6803F00303012B07D1FB681B681D
:1012880003F00103012B01D1012300E00023002B0F
:101298003CD13B681B68102B1DD17B681B68B3F1E0
:1012A800A04F18D1FB6D9B6843F40002FB6D9A6058
:1012B800264B1B68264AA2FB03239A0C13469B0065
:1012C80013445B00BB6002E0BB68013BBB60BB68CA
:1012D800002BF9D12EE03B681B68112B0BD17B68E2
:1012E8001B68B3F1A04F06D1FB6D9B6843F0807279
:1012F800FB6D9A601EE03B681B68122B1AD1FB6DD0
:101308009B6843F48002FB6D9A6013E07B681B6C5A
:1013180043F020027B681A64012387F867300AE0EB
:101328007B681B6C43F020027B681A64012387F8F2
:10133800673000E000BF7B68002283F83C2097F804
:10134800673018466837BD4690BC704708000020D3
:1013580083DE1B4380B499B000AF78603960002306
:1013680087F85F307B681B68B3F1A04F02D15A4BF6
:10137800BB6002E04FF0A043BB60BB68002B01D10B
:101388000123A2E07B6893F83C30012B01D10223B2
:101398009BE07B68012283F83C207B681B689B6884
:1013A80003F00403002B7FD1BB689B6803F00403A0
:1013B800002B79D1494BBB653B681B68002B40D09B
:1013C800BB6D9B6823F460423B6859687B6893F85F
:1013D80030305B030B431A43BB6D9A607B681B6814
:1013E8009B6803F00303012B08D17B681B681B680B
:1013F80003F00103012B01D1012300E00023002B9E
:101408005CD1BB689B6803F00303012B07D1BB6861
:101418001B6803F00103012B01D1012300E0002325
:10142800002B4BD1BB6D9B6823F4716323F00F0332
:101438003A6811683A6892680A431A43BB6D9A6021
:101448003CE0BB6D9B6823F46042BB6D9A607B688F
:101458001B689B6803F00303012B08D17B681B689A
:101468001B6803F00103012B01D1012300E00023D5
:10147800002B23D1BB689B6803F00303012B07D122
:10148800BB681B6803F00103012B01D1012300E0B5
:101498000023002B12D1BB6D9B6823F4716323F0EA
:1014A8000F03BA6D936009E07B681B6C43F0200260
:1014B8007B681A64012387F85F3000E000BF7B680F
:1014C800002283F83C2097F85F3018466437BD4601
:1014D8005DF8047B704700BF000100500003005016
:1014E80080B584B000AF78600023FB607B681B6820
:1014F8009B6803F00303012B08D17B681B681B68FA
:1015080003F00103012B01D1012300E00023002B8C
:1015180040D07B681B689B6803F00D03012B0FD13B
:101528007B681B687A681268926842F002029A60C7
:101538007B681B6803221A60FFF78EFAF86022E0C6
:101548007B681B6C43F010027B681A647B685B6CD9
:1015580043F001027B685A6401231CE0FFF77CFA20
:101568000246FB68D31A022B0DD97B681B6C43F02B
:1015780010027B681A647B685B6C43F001027B682D
:101588005A64012307E07B681B689B6803F001032A
:10159800012BE3D0002318461037BD4680BD00005C
:1015A80080B485B000AF78607B6803F00703FB6008
:1015B8000C4BDB68BB60BA684FF6FF031340BB6097
:1015C800FB681A02BB68134343F0BF6343F400335C
:1015D800BB60044ABB68D36000BF1437BD465DF8E2
:1015E800047B704700ED00E080B400AF044BDB687B
:1015F8001B0A03F007031846BD465DF8047B7047D5
:1016080000ED00E080B483B000AF0346FB7197F9AA
:101618000730002B0BDB094997F907305B09FA798A
:1016280002F01F02012000FA02F241F8232000BF55
:101638000C37BD465DF8047B704700BF00E100E051
:1016480080B483B000AF03463960FB7197F9073067
:10165800002B0ADB0D4997F907303A68D2B212011C
:10166800D2B20B4483F800230AE00949FB7903F05E
:101678000F03043B3A68D2B21201D2B20B441A7675
:1016880000BF0C37BD465DF8047B704700E100E001
:1016980000ED00E080B489B000AFF860B9607A600E
:1016A800FB6803F00703FB61FB69C3F10703042B25
:1016B80028BF0423BB61FB690433062B02D9FB69ED
:1016C800033B00E000237B610122BB6902FA03F3BC
:1016D8005A1EBB681A407B699A4001217B6901FA4E
:1016E80003F3591E7B680B40134318462437BD4645
:1016F8005DF8047B7047000080B582B000AF786069
:101708007B68013BB3F1807F01D301230FE00A4AD4
:101718007B68013B53600F214FF0FF30FFF790FFCC
:10172800054B00229A60044B07221A6000231846D2
:101738000837BD4680BD00BF10E000E080B582B02C
:1017480000AF78607868FFF72BFF00BF0837BD4609
:1017580080BD80B586B000AF0346B9607A60FB7380
:1017680000237B61FFF740FF78617A68B968786980
:10177800FFF790FF024697F90F3011461846FFF71A
:101788005FFF00BF1837BD4680BD80B582B000AF8F
:101798000346FB7197F907301846FFF733FF00BF80
:1017A8000837BD4680BD80B582B000AF78607868E4
:1017B800FFF7A2FF034618460837BD4680BD80B52F
:1017C80084B000AF78600023FB607B68002B01D1F8
:1017D800012337E07B68022283F821207B681B689D
:1017E8001B68FB60FB6823F47F5323F03003FB6026
:1017F8007B685A687B689B681A437B68DB681A4376
:101808007B681B691A437B685B691A437B689B6921
:101818001A437B68DB691343FA681343FB607B68F0
:101828001B68FA681A60786800F0B4F87B680022D0
:101838009A637B68012283F821207B68002283F861
:101848002020002318461037BD4680BD80B584B0DF
:1018580000AF78607B68DB6B1B68FB607B681B688C
:101868001B68BB607B681B6C04229A40FB681340B2
:10187800002B24D0BB6803F00403002B1FD07B6827
:101888001B681B6803F02003002B07D17B681B68CB
:101898007A681268126822F004021A607B68DB6BAF
:1018A8007A68126C042101FA02F25A607B68DB6ADA
:1018B800002B6AD07B68DB6A7868984765E07B68AC
:1018C8001B6C02229A40FB681340002B2CD0BB688B
:1018D80003F00203002B27D07B681B681B6803F00A
:1018E8002003002B0BD17B681B687A68126812688A
:1018F80022F00A021A607B68012283F821207B68A3
:10190800DB6B7A68126C022101FA02F25A607B687A
:10191800002283F820207B689B6A002B35D07B68E7
:101928009B6A7868984730E07B681B6C08229A406D
:10193800FB681340002B28D0BB6803F00803002B7A
:1019480023D07B681B687A681268126822F00E023E
:101958001A607B68DB6B7A68126C012101FA02F26B
:101968005A607B6801229A637B68012283F82120F0
:101978007B68002283F820207B681B6B002B04D037
:101988007B681B6B78689847FFE700BF1037BD4638
:1019980080BD000080B483B000AF78607B681B68AE
:1019A8001A46094B1344094AA2FB03231B099A0050
:1019B8007B681A647B68064ADA6300BF0C37BD4649
:1019C8005DF8047B704700BFF8FFFDBFCDCCCCCCE1
:1019D8000000024080B487B000AF7860396000230F
:1019E8007B614EE13B681A6801217B6901FA03F3C8
:1019F8001340FB60FB68002B00F040813B685B688C
:101A0800012B0BD03B685B68022B07D03B685B68F7
:101A1800112B03D03B685B68122B30D17B689B6825
:101A28003B617B695B00032202FA03F3DB433A69FB
:101A380013403B613B68DA687B695B0002FA03F399
:101A48003A6913433B617B683A699A607B685B68D3
:101A58003B6101227B6902FA03F3DB433A691340D5
:101A68003B613B685B681B0903F001027B6902FA72
:101A780003F33A6913433B617B683A695A607B68B0
:101A8800DB683B617B695B00032202FA03F3DB43FB
:101A98003A6913403B613B689A687B695B0002FACC
:101AA80003F33A6913433B617B683A69DA603B6840
:101AB8005B68022B03D03B685B68122B23D17B69E0
:101AC800DA087B68083253F822303B617B6903F0FF
:101AD80007039B000F2202FA03F3DB433A69134022
:101AE8003B613B681A697B6903F007039B0002FAB4
:101AF80003F33A6913433B617B69DA087B68083270
:101B0800396943F822107B681B683B617B695B007D
:101B1800032202FA03F3DB433A6913403B613B6853
:101B28005B6803F003027B695B0002FA03F33A691E
:101B380013433B617B683A691A603B685B6803F052
:101B48008053002B00F09A80554A554B9B6943F00F
:101B580001039361524B9B6903F00103BB60BB68AF
:101B6800504A7B699B08023352F823303B617B69FA
:101B780003F003039B000F2202FA03F3DB433A69E5
:101B880013403B617B68B3F1904F13D07B68464AA2
:101B980093420DD07B68454A934207D07B68444AFC
:101BA800934201D1032306E0052304E0022302E067
:101BB800012300E000237A6902F0030292009340B7
:101BC8003A6913433B6137497B699B0802333A6999
:101BD80041F82320374B1B683B61FB68DB433A69BC
:101BE80013403B613B685B6803F48033002B03D0F0
:101BF8003A69FB6813433B612E4A3B6913602D4BDE
:101C08005B683B61FB68DB433A6913403B613B68B7
:101C18005B6803F40033002B03D03A69FB68134375
:101C28003B61244A3B695360224B9B683B61FB68DC
:101C3800DB433A6913403B613B685B6803F48013FC
:101C4800002B03D03A69FB6813433B61194A3B698F
:101C58009360184BDB683B61FB68DB433A691340D0
:101C68003B613B685B6803F40013002B03D03A69BF
:101C7800FB6813433B610F4A3B69D3607B690133BF
:101C88007B613B681A687B6922FA03F3002B7FF4B7
:101C9800A9AE00BF1C37BD465DF8047B704700BF86
:101CA80000100240000001400004004800080048FD
:101CB800000C00480004014080B483B000AF786095
:101CC8000B467B8013467B707B78002B03D07A8889
:101CD8007B689A6102E07A887B689A6200BF0C3759
:101CE800BD465DF8047B704780B5ADF5007D00AF5B
:101CF8003B1D18603B1D1B68002B02D1012300F01F
:101D0800F4BE3B1D1B681B6803F00103002B00F0A9
:101D18006A81B34B5B6803F00C03042B0CD0B04B07
:101D28005B6803F00C03082B59D1AD4B5B6803F4D7
:101D38008033B3F5803F52D14FF40033C7F8F03108
:101D4800D7F8F03193FAA3F3C7F8EC31D7F8EC31B0
:101D5800B3FA83F3DBB25B09DBB243F00103DBB216
:101D6800012B02D19E4B1B6815E04FF40033C7F8D6
:101D7800E831D7F8E83193FAA3F3C7F8E4314FF420
:101D88000033C7F8E031D7F8E03193FAA3F3C7F886
:101D9800DC31934B5B6A4FF40032C7F8D821D7F88F
:101DA800D82192FAA2F2C7F8D421D7F8D421B2FAEE
:101DB80082F2D2B242F02002D2B202F01F02012116
:101DC80001FA02F21340002B00F00C813B1D1B6846
:101DD8005B68002B40F00681012300F086BE3B1DA6
:101DE8001B685B68B3F5803F06D17D4A7C4B1B6856
:101DF80043F48033136030E03B1D1B685B68002BA5
:101E08000CD1774A764B1B6823F480331360744AED
:101E1800734B1B6823F4802313601EE03B1D1B6873
:101E28005B68B3F5A02F0CD16D4A6D4B1B6843F46A
:101E3800802313606A4A6A4B1B6843F4803313603B
:101E48000BE0674A664B1B6823F480331360644ACF
:101E5800634B1B6823F4802313606149604BDB6A82
:101E680023F00F023B1D1B689B681343CB623B1D8D
:101E78001B685B68002B59D0FEF7EEFDC7F8F80128
:101E88000AE0FEF7E9FD0246D7F8F831D31A642BC9
:101E980002D9032300F029BE4FF40033C7F8D0312C
:101EA800D7F8D03193FAA3F3C7F8CC31D7F8CC31AF
:101EB800B3FA83F3DBB25B09DBB243F00103DBB2B5
:101EC800012B02D1464B1B6815E04FF40033C7F8CD
:101ED800C831D7F8C83193FAA3F3C7F8C4314FF41F
:101EE8000033C7F8C031D7F8C03193FAA3F3C7F865
:101EF800BC313B4B5B6A4FF40032C7F8B821D7F8C6
:101F0800B82192FAA2F2C7F8B421D7F8B421B2FAEC
:101F180082F2D2B242F02002D2B202F01F020121B4
:101F280001FA02F21340002BABD05CE0FEF794FDFF
:101F3800C7F8F8010AE0FEF78FFD0246D7F8F83136
:101F4800D31A642B02D9032300F0CFBD4FF400331A
:101F5800C7F8B031D7F8B03193FAA3F3C7F8AC316A
:101F6800D7F8AC31B3FA83F3DBB25B09DBB243F0E9
:101F78000103DBB2012B02D1194B1B6815E04FF4AA
:101F88000033C7F8A831D7F8A83193FAA3F3C7F8F4
:101F9800A4314FF40033C7F8A031D7F8A03193FA31
:101FA800A3F3C7F89C310E4B5B6A4FF40032C7F8B5
:101FB8009821D7F8982192FAA2F2C7F89421D7F875
:101FC8009421B2FA82F2D2B242F02002D2B202F0E6
:101FD8001F02012101FA02F21340002BABD102E0EB
:101FE8000010024000BF3B1D1B681B6803F0020382
:101FF800002B00F06F81D04B5B6803F00C03002BC3
:102008000BD0CD4B5B6803F00C03082B6CD1CA4B8B
:102018005B6803F48033002B66D10223C7F8903144
:10202800D7F8903193FAA3F3C7F88C31D7F88C31ED
:10203800B3FA83F3DBB25B09DBB243F00103DBB233
:10204800012B02D1BC4B1B6813E00223C7F888316F
:10205800D7F8883193FAA3F3C7F884310223C7F875
:102068008031D7F8803193FAA3F3C7F87C31B24BAB
:102078005B6A0222C7F87821D7F8782192FAA2F28F
:10208800C7F87421D7F87421B2FA82F2D2B242F0BA
:102098002002D2B202F01F02012101FA02F213401B
:1020A800002B07D03B1D1B681B69012B02D00123A5
:1020B80000F01BBDA048A04B1B6823F0F8023B1D95
:1020C8001B685B69F821C7F87011D7F8701191FA8D
:1020D800A1F1C7F86C11D7F86C11B1FA81F1C9B246
:1020E8008B4013430360F5E03B1D1B681B69002B05
:1020F80000F085800123C7F86831D7F8683193FA72
:10210800A3F3C7F86431D7F86431B3FA83F3DBB2C9
:1021180003F1845303F584139B001A4601231360CB
:10212800FEF79AFCC7F8F8010AE0FEF795FC0246AC
:10213800D7F8F831D31A022B02D9032300F0D5BC03
:102148000223C7F86031D7F8603193FAA3F3C7F8D0
:102158005C31D7F85C31B3FA83F3DBB25B09DBB2ED
:1021680043F00103DBB2012B02D1734B1B6813E070
:102178000223C7F85831D7F8583193FAA3F3C7F8B0
:1021880054310223C7F85031D7F8503193FAA3F3EA
:10219800C7F84C31684B5B6A0222C7F84821D7F868
:1021A800482192FAA2F2C7F84421D7F84421B2FA9A
:1021B80082F2D2B242F02002D2B202F01F02012112
:1021C80001FA02F21340002BAFD05B485A4B1B6850
:1021D80023F0F8023B1D1B685B69F821C7F8401122
:1021E800D7F8401191FAA1F1C7F83C11D7F83C1182
:1021F800B1FA81F1C9B28B40134303606AE001234D
:10220800C7F83831D7F8383193FAA3F3C7F834311F
:10221800D7F83431B3FA83F3DBB203F1845303F50F
:1022280084139B001A4600231360FEF715FCC7F8B9
:10223800F8010AE0FEF710FC0246D7F8F831D31A85
:10224800022B02D9032300F050BC0223C7F8303117
:10225800D7F8303193FAA3F3C7F82C31D7F82C31DB
:10226800B3FA83F3DBB25B09DBB243F00103DBB201
:10227800012B02D1304B1B6813E00223C7F8283129
:10228800D7F8283193FAA3F3C7F824310223C7F803
:102298002031D7F8203193FAA3F3C7F81C31264B25
:1022A8005B6A0222C7F81821D7F8182192FAA2F21D
:1022B800C7F81421D7F81421B2FA82F2D2B242F048
:1022C8002002D2B202F01F02012101FA02F21340E9
:1022D800002BAFD13B1D1B681B6803F00803002BC4
:1022E80000F0DA803B1D1B689B69002B69D0012335
:1022F800C7F81031D7F8103193FAA3F3C7F80C31A7
:10230800D7F80C31B3FA83F3DBB21A460B4B1344FC
:102318009B001A4601231360FEF79EFBC7F8F801DD
:102328000EE0FEF799FB0246D7F8F831D31A022BD4
:1023380006D90323D9E300BF001002402081901082
:102348000223C7F80831D7F8083193FAA3F3C7F87E
:10235800043107F5807302221A6007F580731B6841
:1023680093FAA3F207F1FC031A6007F1F8030222BB
:102378001A6007F1F8031B6893FAA3F207F1F40354
:102388001A60A54B5A6A07F1F0030221196007F198
:10239800F0031B6893FAA3F107F1EC03196007F146
:1023A800EC031B68B3FA83F3DBB243F06003DBB2E0
:1023B80003F01F03012101FA03F31340002BB0D0EF
:1023C8006AE007F1E80301221A6007F1E8031B68D5
:1023D80093FAA3F207F1E4031A6007F1E4031B6818
:1023E800B3FA83F3DBB21A468C4B13449B001A46AC
:1023F80000231360FEF730FBC7F8F80109E0FEF789
:102408002BFB0246D7F8F831D31A022B01D9032344
:102418006BE307F1E00302221A6007F1E0031B688F
:1024280093FAA3F207F1DC031A6007F1D80302223A
:102438001A6007F1D8031B6893FAA3F207F1D403D3
:102448001A6007F1D00302221A6007F1D0031B6853
:1024580093FAA3F207F1CC031A606F4B5A6A07F19B
:10246800C8030221196007F1C8031B6893FAA3F196
:1024780007F1C403196007F1C4031B68B3FA83F3B7
:10248800DBB243F06003DBB203F01F03012101FA62
:1024980003F31340002BB2D13B1D1B681B6803F0EC
:1024A8000403002B00F05881002387F8FF315A4BB2
:1024B800DB6903F08053002B12D1574A564BDB6976
:1024C80043F08053D361544BDB6903F0805207F12A
:1024D80008031A6007F108031B68012387F8FF3116
:1024E8004F4B1B6803F48073002B1AD14C4A4C4B9A
:1024F8001B6843F480731360FEF7AEFAC7F8F8015F
:1025080009E0FEF7A9FA0246D7F8F831D31A642B86
:1025180001D90323E9E2424B1B6803F48073002BC3
:10252800EFD03B1D1B68DB68012B06D13A4A3A4BBA
:102538001B6A43F0010313622FE03B1D1B68DB6835
:10254800002B0CD1344A344B1B6A23F0010313626D
:10255800314A314B1B6A23F0040313621DE03B1D13
:102568001B68DB68052B0CD12B4A2B4B1B6A43F0ED
:1025780004031362284A284B1B6A43F001031362C1
:102588000BE0254A244B1B6A23F001031362224AFD
:10259800214B1B6A23F0040313623B1D1B68DB6895
:1025A800002B6BD0FEF758FAC7F8F8010BE0FEF7DE
:1025B80053FA0246D7F8F831D31A41F288329342D7
:1025C80001D9032391E207F1C00302221A6007F13F
:1025D800C0031B6893FAA3F207F1BC031A6007F162
:1025E800B80302221A6007F1B8031B6893FAA3F232
:1025F80007F1B4031A6007F1B4031B68B3FA83F355
:10260800DBB25B09DBB243F00203DBB2022B09D178
:10261800014B1B6A14E000BF00100240208190109B
:102628000070004007F1B00302221A6007F1B003FE
:102638001B6893FAA3F207F1AC031A60BB4B5B6A01
:1026480007F1A8020221116007F1A802126892FAA4
:10265800A2F107F1A402116007F1A4021268B2FA0C
:1026680082F2D2B242F04002D2B202F01F0201213D
:1026780001FA02F21340002B99D063E0FEF7ECF95F
:10268800C7F8F8010BE0FEF7E7F90246D7F8F8318A
:10269800D31A41F28832934201D9032325E207F184
:1026A800A00302221A6007F1A0031B6893FAA3F2A1
:1026B80007F19C031A6007F1980302221A6007F1D8
:1026C80098031B6893FAA3F207F194031A6007F1C1
:1026D80094031B68B3FA83F3DBB25B09DBB243F004
:1026E8000203DBB2022B02D1904B1B6A0DE007F10B
:1026F800900302221A6007F190031B6893FAA3F271
:1027080007F18C031A60894B5B6A07F18802022182
:10271800116007F18802126892FAA2F107F18402A7
:10272800116007F184021268B2FA82F2D2B242F062
:102738004002D2B202F01F02012101FA02F2134054
:10274800002BA0D197F8FF31012B05D1774A774BA1
:10275800DB6923F08053D3613B1D1B68DB69002BC9
:1027680000F0C281714B5B6803F00C03082B00F08A
:102778009C813B1D1B68DB69022B40F0148107F12B
:1027880080034FF080721A6007F180031B6893FA88
:10279800A3F207F17C031A6007F17C031B68B3FA04
:1027A80083F3DBB203F1845303F584139B001A46C9
:1027B80000231360FEF750F9C7F8F80109E0FEF7A7
:1027C8004BF90246D7F8F831D31A022B01D9032363
:1027D8008BE107F178034FF000721A6007F1780374
:1027E8001B6893FAA3F207F174031A6007F17403E4
:1027F8001B68B3FA83F3DBB25B09DBB243F0010376
:10280800DBB2012B02D1494B1B681BE007F17003B7
:102818004FF000721A6007F170031B6893FAA3F275
:1028280007F16C031A6007F168034FF000721A6031
:1028380007F168031B6893FAA3F207F164031A60AF
:102848003A4B5B6A07F160024FF00071116007F1C3
:102858006002126892FAA2F107F15C02116007F1B6
:102868005C021268B2FA82F2D2B242F02002D2B20C
:1028780002F01F02012101FA02F21340002B9ED13F
:102888002A482A4B5B6823F474123B1D1B68596A5B
:102898003B1D1B681B6A0B431343436007F1580336
:1028A8004FF080721A6007F158031B6893FAA3F27D
:1028B80007F154031A6007F154031B68B3FA83F352
:1028C800DBB203F1845303F584139B001A460123FA
:1028D8001360FEF7C1F8C7F8F80109E0FEF7BCF885
:1028E8000246D7F8F831D31A022B01D90323FCE0AA
:1028F80007F150034FF000721A6007F150031B688C
:1029080093FAA3F207F14C031A6007F14C031B6812
:10291800B3FA83F3DBB25B09DBB243F00103DBB24A
:10292800012B05D1014B1B681EE000BF00100240BF
:1029380007F148034FF000721A6007F148031B685B
:1029480093FAA3F207F144031A6007F140034FF02A
:1029580000721A6007F140031B6893FAA3F207F1AB
:102968003C031A60634B5B6A07F138024FF0007151
:10297800116007F13802126892FAA2F107F13402E5
:10298800116007F134021268B2FA82F2D2B242F050
:102998002002D2B202F01F02012101FA02F2134012
:1029A800002B9BD0A0E007F130034FF080721A6033
:1029B80007F130031B6893FAA3F207F12C031A609E
:1029C80007F12C031B68B3FA83F3DBB203F18453DA
:1029D80003F584139B001A4600231360FEF73CF8A6
:1029E800C7F8F80109E0FEF737F80246D7F8F831DA
:1029F800D31A022B01D9032377E007F128034FF0FC
:102A080000721A6007F128031B6893FAA3F207F112
:102A180024031A6007F124031B68B3FA83F3DBB2BB
:102A28005B09DBB243F00103DBB2012B02D1314B6E
:102A38001B681BE007F120034FF000721A6007F1D2
:102A480020031B6893FAA3F207F11C031A6007F12D
:102A580018034FF000721A6007F118031B6893FA05
:102A6800A3F207F114031A60224B5B6A07F1100204
:102A78004FF00071116007F11002126892FAA2F18A
:102A880007F10C02116007F10C021268B2FA82F227
:102A9800D2B242F02002D2B202F01F02012101FAA2
:102AA80002F21340002B9ED11EE03B1D1B68DB6920
:102AB800012B01D1012318E00E4B5B68C7F8F431F4
:102AC800D7F8F43103F480323B1D1B681B6A9A4225
:102AD80008D1D7F8F43103F470123B1D1B685B6A08
:102AE8009A4201D0012300E00023184607F5007739
:102AF800BD4680BD0010024080B59EB000AF786032
:102B0800396000237B677B68002B01D1012362E1D8
:102B1800904B1B6803F007023B689A4210D28D491C
:102B28008C4B1B6823F007023B6813430B60894BEF
:102B38001B6803F007023B689A4201D001234AE16F
:102B48007B681B6803F00203002B08D08249824B84
:102B58005B6823F0F0027B689B6813434B607B68DB
:102B68001B6803F00103002B00F0DC807B685B68C6
:102B7800012B3CD14FF400333B673B6F93FAA3F32F
:102B8800FB66FB6EB3FA83F3DBB25B09DBB243F09F
:102B98000103DBB2012B02D16F4B1B680FE04FF42E
:102BA8000033BB66BB6E93FAA3F37B664FF4003326
:102BB8003B663B6E93FAA3F3FB65674B5B6A4FF486
:102BC8000032BA65BA6D92FAA2F27A657A6DB2FAF3
:102BD80082F2D2B242F02002D2B202F01F020121E8
:102BE80001FA02F21340002B7BD10123F3E07B684A
:102BF8005B68022B3CD14FF000733B653B6D93FA49
:102C0800A3F3FB64FB6CB3FA83F3DBB25B09DBB2BF
:102C180043F00103DBB2012B02D14F4B1B680FE0DD
:102C28004FF00073BB64BB6C93FAA3F37B644FF063
:102C380000733B643B6C93FAA3F3FB63464B5B6AFC
:102C48004FF00072BA63BA6B92FAA2F27A637A6BA7
:102C5800B2FA82F2D2B242F02002D2B202F01F02DD
:102C6800012101FA02F21340002B3AD10123B2E00C
:102C780002233B633B6B93FAA3F3FB62FB6AB3FA51
:102C880083F3DBB25B09DBB243F00103DBB2012B58
:102C980002D1314B1B680DE00223BB62BB6A93FA79
:102CA800A3F37B6202233B623B6A93FAA3F3FB61C3
:102CB800294B5B6A0222BA61BA6992FAA2F27A6176
:102CC8007A69B2FA82F2D2B242F02002D2B202F0AB
:102CD8001F02012101FA02F21340002B01D1012346
:102CE80079E01D491C4B5B6823F003027B685B6835
:102CF80013434B60FDF7B0FE78670AE0FDF7ACFEC2
:102D080002467B6FD31A41F28832934201D90323DA
:102D180061E0114B5B6803F00C027B685B689B0009
:102D28009A42EBD10B4B1B6803F007023B689A42AF
:102D380014D90849074B1B6823F007023B68134363
:102D48000B60044B1B6803F007023B689A4205D0EE
:102D5800012340E000200240001002407B681B680D
:102D680003F00403002B08D01D491D4B5B6823F4B6
:102D7800E0627B68DB6813434B607B681B6803F089
:102D88000803002B09D01649154B5B6823F46052E1
:102D98007B681B69DB0013434B6000F029F8014690
:102DA8000F4B5B6803F0F003F0223A613A6992FA3C
:102DB800A2F2FA60FA68B2FA82F2D2B2D340094AB1
:102DC800D35C21FA03F3084A1360084B1B681846C2
:102DD800FDF7FEFD002318467837BD4680BD00BFCD
:102DE800001002409C5B0008080000200000002042
:102DF80080B48BB000AF0023FB610023BB610023CC
:102E08007B6200237B6100233B62294B5B68FB618B
:102E1800FB6903F00C03042B02D0082B03D03CE021
:102E2800244B3B623CE0FB6903F470134FF47012CF
:102E3800BA60BA6892FAA2F27A607A68B2FA82F252
:102E4800D2B2D3401C4AD35C7B61194BDB6A03F0D6
:102E58000F030F223A613A6992FAA2F2FA60FA680D
:102E6800B2FA82F2D2B2D340144AD35CBB61FB6996
:102E780003F48033002B08D00E4ABB69B2FBF3F38E
:102E88007A6902FB03F37B6204E07B690C4A02FB6C
:102E980003F37B627B6A3B6202E0064B3B6200BF46
:102EA8003B6A18462C37BD465DF8047B704700BF67
:102EB8000010024000127A007C5B00088C5B00085E
:102EC80000093D0080B400AF034B1B681846BD469F
:102ED8005DF8047B704700BF0800002080B582B011
:102EE80000AFFFF7EFFF01460B4B5B6803F4E063AD
:102EF8004FF4E0627A607A6892FAA2F23A603A682D
:102F0800B2FA82F2D2B2D340044AD35C21FA03F374
:102F180018460837BD4680BD00100240AC5B00086B
:102F280080B582B000AFFFF7CDFF01460B4B5B6861
:102F380003F460534FF460527A607A6892FAA2F20E
:102F48003A603A68B2FA82F2D2B2D340044AD35C09
:102F580021FA03F318460837BD4680BD0010024029
:102F6800AC5B000880B592B000AF786000233B648A
:102F78000023FB63002387F847307B681B6803F452
:102F88008033002B00F0CD808E4BDB6903F080533B
:102F9800002B0ED18B4A8B4BDB6943F08053D361F6
:102FA800884BDB6903F08053BB60BB68012387F85B
:102FB8004730854B1B6803F48073002B18D1824A75
:102FC800814B1B6843F480731360FDF745FD38643B
:102FD80008E0FDF741FD02463B6CD31A642B01D98A
:102FE8000323EAE0784B1B6803F48073002BF0D0CE
:102FF800744B1B6A03F44073FB63FB6B002B7DD09F
:103008007B685B6803F44072FB6B9A4276D06D4B29
:103018001B6A23F44073FB634FF480333B633B6BC1
:1030280093FAA3F3FB62FB6AB3FA83F3DBB21A46A3
:10303800664B13449B001A46012313604FF48033F8
:10304800BB63BB6B93FAA3F37B637B6BB3FA83F32A
:10305800DBB21A465D4B13449B001A4600231360EB
:10306800584AFB6B1362FB6B03F00103002B45D03E
:10307800FDF7F2FC38640AE0FDF7EEFC02463B6C13
:10308800D31A41F28832934201D9032395E00223EF
:10309800BB62BB6A93FAA3F37B6202233B623B6A7F
:1030A80093FAA3F3FB61FB69B3FA83F3DBB25B0921
:1030B800DBB243F00203DBB2022B02D1414B1B6AA5
:1030C80007E00223BB61BB6993FAA3F37B613D4B25
:1030D8005B6A02223A613A6992FAA2F2FA60FA68E5
:1030E800B2FA82F2D2B242F04002D2B202F01F0229
:1030F800012101FA02F21340002BBDD03149314BB6
:103108001B6A23F440727B685B6813430B6297F871
:103118004730012B05D12B4A2A4BDB6923F080531A
:10312800D3617B681B6803F00103002B08D0254995
:10313800244B1B6B23F003027B689B6813430B63D0
:103148007B681B6803F02003002B08D01D491D4B2A
:103158001B6B23F010027B68DB6813430B637B68EF
:103168001B6803F08003002B08D01649154BDB6A57
:1031780023F4F8727B681B691343CB627B681B6876
:1031880003F48053002B08D00E490E4B1B6B23F41D
:1031980080727B685B6913430B637B681B6803F46D
:1031A8008043002B08D00749064B1B6B23F4805241
:1031B8007B689B6913430B63002318464837BD4659
:1031C80080BD00BF001002400070004000819010D8
:1031D80080B582B000AF78607B68002B01D10123F5
:1031E80049E07B6893F83D30DBB2002B06D17B6861
:1031F800002283F83C20786802F0E0FA7B6802221B
:1032080083F83D207B681A687B68043319461046AA
:1032180000F09CF97B68012283F848207B68012232
:1032280083F83E207B68012283F83F207B680122D7
:1032380083F840207B68012283F841207B680122C3
:1032480083F842207B68012283F843207B680122AF
:1032580083F844207B68012283F845207B6801229B
:1032680083F846207B68012283F847207B68012287
:1032780083F83D20002318460837BD4680BD80B539
:1032880082B000AF78607B68002B01D1012349E050
:103298007B6893F83D30DBB2002B06D17B680022B7
:1032A80083F83C20786802F069FA7B68022283F888
:1032B8003D207B681A687B6804331946104600F085
:1032C80045F97B68012283F848207B68012283F84E
:1032D8003E207B68012283F83F207B68012283F827
:1032E80040207B68012283F841207B68012283F813
:1032F80042207B68012283F843207B68012283F8FF
:1033080044207B68012283F845207B68012283F8EA
:1033180046207B68012283F847207B68012283F8D6
:103328003D20002318460837BD4680BD80B584B0CF
:1033380000AFF860B9607A60FB6893F83C30012B05
:1033480001D10223FDE0FB68012283F83C207B6861
:10335800142B00F2F08001A252F823F0B9330008D0
:103368003F3500083F3500083F350008F9330008AD
:103378003F3500083F3500083F3500083B3400085A
:103388003F3500083F3500083F3500087B3400080A
:103398003F3500083F3500083F350008BD340008B8
:1033A8003F3500083F3500083F350008FD34000868
:1033B800FB681B68B968184600F040F9FB681B6891
:1033C800FA681268926942F008029A61FB681B6801
:1033D800FA681268926922F004029A61FB681B6815
:1033E800FA6812689169BA6812690A439A61A3E097
:1033F800FB681B68B968184600F0A6F9FB681B68EB
:10340800FA681268926942F400629A61FB681B6864
:10341800FA681268926922F480629A61FB681B68F4
:10342800FA6812689169BA68126912020A439A61C5
:1034380082E0FB681B68B968184600F005FAFB686B
:103448001B68FA681268D26942F00802DA61FB6800
:103458001B68FA681268D26922F00402DA61FB6814
:103468001B68FA681268D169BA6812690A43DA6196
:1034780062E0FB681B68B968184600F063FAFB68ED
:103488001B68FA681268D26942F40062DA61FB6864
:103498001B68FA681268D26922F48062DA61FB68F4
:1034A8001B68FA681268D169BA68126912020A437D
:1034B800DA6141E0FB681B68B968184600F0A6FAB3
:1034C800FB681B68FA681268526D42F008025A6578
:1034D800FB681B68FA681268526D22F004025A658C
:1034E800FB681B68FA681268516DBA6812690A436A
:1034F8005A6521E0FB681B68B968184600F0E4FAD1
:10350800FB681B68FA681268526D42F400625A65DB
:10351800FB681B68FA681268526D22F480625A656B
:10352800FB681B68FA681268516DBA681269120262
:103538000A435A6500E000BFFB68002283F83C207C
:10354800002318461037BD4680BD00BF80B485B043
:1035580000AF786039607B681B68FB607B68324A23
:10356800934207D07B68B3F1804F03D07B682F4A22
:10357800934208D1FB6823F07003FB603B685B68EB
:10358800FA681343FB607B68274A934213D07B6831
:10359800B3F1804F0FD07B68244A93420BD07B68ED
:1035A800234A934207D07B68224A934203D07B6820
:1035B800214A934208D1FB6823F44073FB603B68BF
:1035C800DB68FA681343FB60FB6823F080023B6802
:1035D8005B691343FB607B68FA681A603B689A680A
:1035E8007B68DA623B681A687B689A627B680E4A75
:1035F80093420BD07B680E4A934207D07B680D4AF2
:10360800934203D07B680C4A934203D13B681A6902
:103618007B681A637B6801225A6100BF1437BD4674
:103628005DF8047B704700BF002C01400004004097
:1036380000400140004401400048014080B487B088
:1036480000AF786039607B681B6A23F001027B68F1
:103658001A627B681B6A7B617B685B683B617B687D
:103668009B69FB60FB6823F4803323F07003FB60E5
:10367800FB6823F00303FB603B681B68FA6813438D
:10368800FB607B6923F002037B613B689B687A6976
:1036980013437B617B68284A93420BD07B68274A97
:1036A800934207D07B68264A934203D07B68254A19
:1036B80093420CD17B6923F008037B613B68DB688C
:1036C8007A6913437B617B6923F004037B617B6820
:1036D800194A93420BD07B68184A934207D07B68FB
:1036E800174A934203D07B68164A934211D13B692B
:1036F80023F480733B613B6923F400733B613B68AF
:103708005B693A6913433B613B689B693A691343B8
:103718003B617B683A695A607B68FA689A613B68E2
:103728005A687B685A637B687A691A6200BF1C37DB
:10373800BD465DF8047B7047002C01400040014005
:10374800004401400048014080B487B000AF786071
:1037580039607B681B6A23F010027B681A627B68F9
:103768001B6A7B617B685B683B617B689B69FB606C
:10377800FB6823F0807323F4E043FB60FB6823F4C9
:103788004073FB603B681B681B02FA681343FB60CD
:103798007B6923F020037B613B689B681B017A6986
:1037A80013437B617B68244A93420DD17B6923F0E4
:1037B80080037B613B68DB681B017A6913437B618B
:1037C8007B6923F040037B617B681B4A93420BD0E3
:1037D8007B681A4A934207D07B68194A934203D000
:1037E8007B68184A934213D13B6923F480633B6199
:1037F8003B6923F400633B613B685B699B003A6962
:1038080013433B613B689B699B003A6913433B61E7
:103818007B683A695A607B68FA689A613B685A68BB
:103828007B689A637B687A691A6200BF1C37BD4659
:103838005DF8047B704700BF002C01400040014048
:10384800004401400048014080B487B000AF786070
:1038580039607B681B6A23F480727B681A627B6814
:103868001B6A7B617B685B683B617B68DB69FB602B
:10387800FB6823F4803323F07003FB60FB6823F0BC
:103888000303FB603B681B68FA681343FB607B69B2
:1038980023F400737B613B689B681B027A691343BE
:1038A8007B617B68234A93420DD17B6923F40063D3
:1038B8007B613B68DB681B027A6913437B617B6928
:1038C80023F480637B617B681A4A93420BD07B6840
:1038D800194A934207D07B68184A934203D07B6801
:1038E800174A934213D13B6923F480533B613B69E8
:1038F80023F400533B613B685B691B013A6913433E
:103908003B613B689B691B013A6913433B617B68D8
:103918003A695A607B68FA68DA613B685A687B687A
:10392800DA637B687A691A6200BF1C37BD465DF8A6
:10393800047B7047002C01400040014000440140D6
:103948000048014080B487B000AF786039607B6878
:103958001B6A23F480527B681A627B681B6A3B618E
:103968007B685B687B617B68DB69FB60FB6823F0D5
:10397800807323F4E043FB60FB6823F44073FB602F
:103988003B681B681B02FA681343FB603B6923F41E
:1039980000533B613B689B681B033A6913433B61D7
:1039A8007B68164A93420BD07B68154A934207D02E
:1039B8007B68144A934203D07B68134A934209D127
:1039C8007B6923F480437B613B685B699B017A696F
:1039D80013437B617B687A695A607B68FA68DA61AD
:1039E8003B685A687B681A647B683A691A6200BF48
:1039F8001C37BD465DF8047B704700BF002C0140B2
:103A080000400140004401400048014080B487B0B4
:103A180000AF786039607B681B6A23F480327B686A
:103A28001A627B681B6A3B617B685B687B617B68A9
:103A38005B6DFB60FB6823F4803323F07003FB604D
:103A48003B681B68FA681343FB603B6923F4003347
:103A58003B613B689B681B043A6913433B617B6885
:103A6800154A93420BD07B68144A934207D07B686F
:103A7800134A934203D07B68124A934209D17B6967
:103A880023F480337B613B685B691B027A691343CB
:103A98007B617B687A695A607B68FA685A653B681B
:103AA8005A687B689A657B683A691A6200BF1C3756
:103AB800BD465DF8047B7047002C01400040014082
:103AC800004401400048014080B487B000AF7860EE
:103AD80039607B681B6A23F480127B681A627B68F2
:103AE8001B6A3B617B685B687B617B685B6DFB6025
:103AF800FB6823F0807323F4E043FB603B681B689A
:103B08001B02FA681343FB603B6923F400133B6113
:103B18003B689B681B053A6913433B617B68164AFF
:103B280093420BD07B68154A934207D07B68144AAE
:103B3800934203D07B68134A934209D17B6923F4EB
:103B480080237B613B685B699B027A6913437B61D5
:103B58007B687A695A607B68FA685A653B685A6874
:103B68007B68DA657B683A691A6200BF1C37BD4614
:103B78005DF8047B704700BF002C01400040014005
:103B8800004401400048014080B485B000AF78602F
:103B980039607B6893F83C30012B01D1022354E053
:103BA8007B68012283F83C207B68022283F83D2051
:103BB8007B681B685B68FB607B681B689B68BB60F5
:103BC8007B681B68244A934208D1FB6823F470037E
:103BD800FB603B685B68FA681343FB60FB6823F093
:103BE8007003FB603B681B68FA681343FB607B68E3
:103BF8001B68FA685A607B681B68174A93420ED0A4
:103C08007B681B68B3F1804F09D07B681B68134A37
:103C1800934204D07B681B68114A93420CD1BB685D
:103C280023F08003BB603B689B68BA681343BB60A2
:103C38007B681B68BA689A607B68012283F83D201C
:103C48007B68002283F83C20002318461437BD46C1
:103C58005DF8047B704700BF002C01400004004061
:103C68000040014080B588B000AF78600023BB7782
:103C78007B689A687B681B691A437B685B691A438F
:103C88007B68DB6913437B617B681A687B681B6808
:103C980019688A4B0B4079690B4313607B681B6872
:103CA8007A681268526822F440517A68D2680A43E6
:103CB8005A607B689B697B617B681B6A7A691343DE
:103CC8007B617B681B687A681268926822F43061AD
:103CD8007A690A439A607B681B68794A934221D1C2
:103CE800784B1B6B03F00303032B17D801A252F880
:103CF80023F000BF0D3D0008193D00081F3D0008D6
:103D0800133D00080023FB771EE00223FB771BE02E
:103D18000423FB7718E00823FB7715E01023FB77D3
:103D280000BF11E07B681B68674A934202D10023F9
:103D3800FB7709E07B681B68644A934202D1002341
:103D4800FB7701E01023FB777B68DB69B3F5004F55
:103D58005CD1FB7F082B28D801A252F823F000BFC2
:103D68008D3D0008953D00089D3D0008B33D0008C5
:103D7800A33D0008B33D0008B33D0008B33D00086B
:103D8800AB3D0008FFF7AAF8B86113E0FFF7C8F8E1
:103D9800B8610FE04E4BBB610CE0FFF729F8B86142
:103DA80008E04FF40043BB6104E00023BB6101233A
:103DB800BB7700BFBB69002B74D0BB695A007B6816
:103DC8005B685B081A447B685B68B2FBF3F39BB2E1
:103DD8003B613B690F2B16D93B69B3F5803F12D283
:103DE8003B699BB223F00F03FB813B695B089BB2E5
:103DF80003F007039AB2FB891343FB817B681B68B6
:103E0800FA89DA604EE00123BB774BE0FB7F082B91
:103E180027D801A252F823F0453E00084D3E00087D
:103E2800553E00086B3E00085B3E00086B3E0008EC
:103E38006B3E00086B3E0008633E0008FFF74EF833
:103E4800B86113E0FFF76CF8B8610FE0204BBB6175
:103E58000CE0FEF7CDFFB86108E04FF40043BB610A
:103E680004E00023BB610123BB7700BFBB69002BC3
:103E780018D07B685B685A08BB691A447B685B6822
:103E8800B2FBF3F39BB23B613B690F2B08D93B694B
:103E9800B3F5803F04D27B681B683A69DA6001E0B9
:103EA8000123BB777B6800225A667B6800229A66EA
:103EB800BB7F18462037BD4680BD00BFF369FFEFC2
:103EC8000038014000100240004400400048004013
:103ED80000127A0080B483B000AF78607B685B6AB8
:103EE80003F00103002B0AD07B681B687A6812680C
:103EF800526822F400317A68926A0A435A607B68F1
:103F08005B6A03F00203002B0AD07B681B687A689F
:103F18001268526822F480317A68D26A0A435A6079
:103F28007B685B6A03F00403002B0AD07B681B687C
:103F38007A681268526822F480217A68126B0A4300
:103F48005A607B685B6A03F00803002B0AD07B6821
:103F58001B687A681268526822F400417A68526BCA
:103F68000A435A607B685B6A03F01003002B0AD08F
:103F78007B681B687A681268926822F480517A68B4
:103F8800926B0A439A607B685B6A03F02003002BFC
:103F98000AD07B681B687A681268926822F400511C
:103FA8007A68D26B0A439A607B685B6A03F04003C5
:103FB800002B1AD07B681B687A681268526822F452
:103FC80080117A68126C0A435A607B681B6CB3F5DF
:103FD800801F0AD17B681B687A681268526822F4CD
:103FE800C0017A68526C0A435A607B685B6A03F0C6
:103FF8008003002B0AD07B681B687A6812685268B5
:1040080022F400217A68926C0A435A6000BF0C3788
:10401800BD465DF8047B704780B586B002AF786016
:104028007B680022C3F88020FCF716FDF8607B68E7
:104038001B681B6803F00803082B0ED16FF07E4342
:104048000093FB6800224FF40011786800F02DF807
:104058000346002B01D0032323E07B681B681B6801
:1040680003F00403042B0ED16FF07E430093FB682A
:1040780000224FF48001786800F017F80346002BFF
:1040880001D003230DE07B6820229A677B682022F9
:10409800DA677B6800221A667B68002283F874203E
:1040A800002318461037BD4680BD80B584B000AFE8
:1040B800F860B9603B601346FB715EE0BB69B3F121
:1040C800FF3F5AD0FCF7C8FC02463B68D21ABB69CE
:1040D8009A4202D8BB69002B1BD1FB681B68FA689F
:1040E8001268126822F4D0721A60FB681B68FA68BA
:1040F8001268926822F001029A60FB6820229A678F
:10410800FB682022DA67FB68002283F87420032307
:1041180043E0FB681B681B6803F00403002B2CD0EA
:10412800FB681B68DB6903F40063B3F5006F24D1F7
:10413800FB681B684FF400621A62FB681B68FA6828
:104148001268126822F4D0721A60FB681B68FA6859
:104158001268926822F001029A60FB6820229A672E
:10416800FB682022DA67FB682022C3F88020FB68FE
:10417800002283F8742003230FE0FB681B68DA69C8
:10418800BB681A40BB689A420CBF01230023DBB20C
:104198001A46FB799A4291D0002318461037BD463B
:1041A80080BD80B586B000AFF860B9607A603B60CA
:1041B800FB68002B01D1012356E0FB689B6F002BA5
:1041C80006D1FB68002283F87420F86801F06EFBC2
:1041D800FB6824229A67FB681B68FA6812681268F1
:1041E80022F001021A60F868FFF73CFD0346012B34
:1041F80001D1012338E0FB685B6A002B02D0F86824
:10420800FFF768FEFB681B68FA681268926842F458
:1042180080429A60FB681B68FA681268926822F408
:104228000041BA680A439A607B685B057B613B681A
:104238001B047A6913437B61FB681A68FB681B6877
:104248001B6823F07F7323F4403379690B431360B1
:10425800FB681B68FA681268126842F001021A606B
:10426800F868FFF7D9FE034618461837BD4680BDE3
:1042780080B483B000AF0346FB7197F90730002B79
:104288000BDB094997F907305B09FA7902F01F023D
:10429800012000FA02F241F8232000BF0C37BD4686
:1042A8005DF8047B704700BF00E100E080B500AF17
:1042B8000E4A0E4B5B6923F0040353610A20FCF796
:1042C800D7FB0A4A094B5B6943F0040353610A2090
:1042D800FCF7CEFB054A054B5B6923F004035361E9
:1042E8002D20FCF7C5FB00BF80BD00BF00080048BB
:1042F80080B582B000AF03463960FB713B68012B83
:1043080003D1094B01225A6105E0074A064B5B6954
:1043180023F001035361054AFB795361FFF7C6FF98
:1043280000BF0837BD4680BD0008004800040048AB
:1043380080B582B000AF03463960FB713B68012B42
:1043480012D1FB7963F07F03DAB2124B1A70124A6A
:10435800114B5B6923F001035361104B0D4A12782E
:104368005A61FFF7A3FF11E0FB7963F03F03DAB26C
:10437800084B1A70084A084B5B6923F00103536124
:10438800064B044A12785A61FFF790FF00BF0837BE
:10439800BD4680BD90020020000800480004004887
:1043A80080B500AF194A194B5B6923F0FF035361CD
:1043B8006420FCF75DFB164A154B5B6923F001038B
:1043C8005361134A124B5B6923F002035361104A8D
:1043D8000F4B5B6923F004035361FFF767FF00216C
:1043E8003C20FFF785FF00213C20FFF781FF0021DB
:1043F8000E20FFF77DFF00210120FFF779FF002144
:104408000620FFF775FF00BF80BD00BF000400480D
:104418000008004880B500AF00210120FFF768FFC1
:1044280001210120FFF784FF0121A820FFF760FF89
:1044380001217020FFF75CFF01216F20FFF758FF73
:104448000121B420FFF754FF01212020FFF750FF7E
:1044580001214E20FFF74CFF154B1B68002B04D1A0
:1044680001213120FFF744FF03E001213220FFF74B
:104478003FFF02210120FFF75BFF01215420FFF7D6
:1044880037FF0121BD20FFF733FF01213D20FFF752
:104498002FFF01213020FFF72BFF01213020FFF7EC
:1044A80027FF01213020FFF723FF00BF80BD00BF99
:1044B8005000002080B500AF00210120FFF718FF51
:1044C80001210120FFF734FF01217420FFF710FFBD
:1044D8000121BD20FFF70CFF01213D20FFF708FF58
:1044E80001213020FFF704FF01213020FFF700FFF2
:1044F80001213020FFF7FCFE02210120FFF718FF01
:1045080001217420FFF7F4FE01217920FFF7F0FE66
:1045180001213D20FFF7ECFE01213020FFF7E8FEE6
:1045280001213020FFF7E4FE01213020FFF7E0FEF3
:1045380000BF80BD80B584B000AF0123FB600023BD
:10454800BB6000237B600023BB7000237B700023CB
:104558003B700023FB70A9E0604B1B68022B02D163
:104568004023FB7001E00023FB70FB7863F07903C4
:10457800DAB25B4B1B789A427ED15A4B1B6903F423
:104588008053002B02D1584B01221A60574B1B78DD
:104598001A46554B1B681340002B6DD0534B002215
:1045A8001A70514B00221A60FB68092B14DCFB6857
:1045B8005BB243F030035BB2BB70BB780121184695
:1045C800FFF796FEFB680133FB60444B1B681946F6
:1045D8000620FFF7ADFE4FE00123FB6001213020EC
:1045E800FFF786FEBB680133BB60BB68092B17DC8D
:1045F800BB685BB243F030035BB27B70374B1B6820
:1046080019460520FFF794FE7B7801211846FFF72D
:104618006FFE324B1B6819460620FFF789FE2BE018
:104628000023BB602D4B1B6819460520FFF780FE51
:1046380001213020FFF75CFE7B6801337B607B68DB
:10464800092B17DC7B685BB243F030035BB23B702D
:10465800224B1B6819460420FFF76AFE3B780121AC
:104668001846FFF745FE1D4B1B6819460620FFF745
:104678005FFE01E000237B601A4B1B6903F4806333
:10468800002B02D1184B01221A60184B1B781A46CE
:10469800154B1B681340002B08D0144B00221A70CE
:1046A800114B00221A60124B00221A60104B1B6833
:1046B800012B3FF451AF7B68642202FB03F1BA6817
:1046C80013469B0013445B00CA18FB681344094A4D
:1046D800136000BF1037BD4680BD00BF9C0200209C
:1046E80090020020000800483C000020380000200C
:1046F800340200202800002080B582B000AF786026
:104708007B68092B3ED801A252F823F03D470008E8
:10471800454700084D470008554700085D47000811
:10472800654700086D470008754700087D47000881
:1047380085470008194B30221A7023E0174B3122A5
:104748001A701FE0154B32221A701BE0134B3322EC
:104758001A7017E0114B34221A7013E00F4B3522F0
:104768001A700FE00D4B36221A700BE00B4B3722F4
:104778001A7007E0094B38221A7003E0074B3922F8
:104788001A7000BF054B1A78054B1B68194610466E
:10479800FFF7AEFD00BF0837BD4680BD39020020D7
:1047A800900100200000000090B587B000AF78604D
:1047B8004FF0A0424FF0A0439B6843F0040393607E
:1047C80000BF4FF0A0424FF0A0439B6803F00403E2
:1047D8009360002BF5D04FF0A0431B6C1A463C4B5E
:1047E8001A604FF0A0424FF0A0439B6843F01003BB
:1047F8009360374B1B681846FBF734FE32A3D3E9A6
:104808000023FBF795FE03460C46184621464FF059
:104818000002304BFBF78CFE03460C461846214637
:10482800FCF798F802462C4B1A6079680420FFF7C9
:104838007FFD294B1B68294A82FB03125211DB17A3
:10484800D31A7B617B693B613869FFF755FF79684B
:104858000520FFF76DFD7B696FF0630202FB03F231
:104868001D4B1B6813441E4A82FB03129210DB1770
:10487800D31AFB60FB683B613869FFF73DFF796835
:104888000620FFF755FD7B696FF0630202FB03F218
:10489800114B1B681A44FB686FF0090101FB03F315
:1048A8001344FB60FB683B613869FFF725FF4FF055
:1048B800A04300221A644FF47A70FCF7D9F800BFBD
:1048C8001C37BD4690BD00BFB4D934E70C684A3FD9
:1048D800A002002000005940880200201F85EB51EB
:1048E8006766666680B586B000AF786002210420EE
:1048F800FFF71EFD7B682F4A82FB03129211DB171C
:10490800D31A7B617B693B613869FFF7F5FE0221A9
:104918000520FFF70DFD7B69274A02FB03F27B6840
:104928001344264A82FB03125211DB17D31AFB6089
:10493800FB683B613869FFF7DFFE02210620FFF7BD
:10494800F7FC7B691C4A02FB03F27B681A44FB688C
:104958006FF0630101FB03F31344194A82FB03124E
:104968009210DB17D31ABB60BB683B613869FFF74D
:10497800C3FE02210720FFF7DBFC7B690E4A02FB1E
:1049880003F27B681A44FB686FF0630101FB03F3D1
:104998001A44BB686FF0090101FB03F31344BB60C1
:1049A800BB683B613869FFF7A7FE00BF1837BD46F3
:1049B80080BD00BFD34D621018FCFFFF1F85EB516F
:1049C8006766666680B500AF02210120FFF7B0FC7C
:1049D80001217420FFF78CFC01216E20FFF788FC71
:1049E80001213D20FFF784FC01214F20FFF780FCC7
:1049F80001216B20FFF77CFC01212020FFF778FCC8
:104A080001212020FFF774FC00BF80BD80B500AFF6
:104A180001215420FFF76CFC01216920FFF768FC95
:104A280001213D20FFF764FC02210120FFF780FCF3
:104A380001217420FFF75CFC01216E20FFF758FC70
:104A480001213D20FFF754FC00BF80BD80B400AFBA
:104A58000F4B01221A700F4A0E4B1B6923F00103FA
:104A680013610D4B1B68042B05DC0B4B1B680133D2
:104A7800094A136007E0094B1B680133074A1360B2
:104A8800054B00221A6000BFBD465DF8047B7047E5
:104A980038000020001000404000002030000020B6
:104AA80080B400AF3A4B3B4A1A603B4B3B4A1A6012
:104AB8003B4B3C4A1A603C4B1B683C4A13603C4BDE
:104AC8001B6807EE903AB8EEE77A3A4BD3ED007AD6
:104AD80077EE677A344BC3ED007A334B93ED007A67
:104AE800324BD3ED007A77EE277AF0EE006A87EE44
:104AF800A67A314BD3ED007A77EE277A2E4BC3EDA9
:104B0800007A254BD3ED007AF7EE006A86EEA77A95
:104B1800294BD3ED007A67EE277A284BC3ED007A4C
:104B2800214B93ED007A214BD3ED007A37EE677A6B
:104B38001B4BD3ED007A67EE277A214BC3ED007A41
:104B4800134B93ED007A184BD3ED007A27EE277AB2
:104B58001A4BD3ED007A37EE277A194BD3ED007A4A
:104B680077EE277A174BC3ED007A174B154AD2ED2B
:104B7800007AB3EE047A67EE877AFCEEE77A17EEEE
:104B8800902A9A6300BFBD465DF8047B704700BF5A
:104B980054000020000070432401002000009841C8
:104BA8008C020020000016449802002034010020E6
:104BB80088020020340000208C0100203C010020E5
:104BC80094020020300100200004004080B582B02B
:104BD80000AFFBF7E7FE00F013FB00F0FBFC00F072
:104BE800D3FC00F067FB00F0D5FB00F02DFC00F0D3
:104BF80061FC00F097FCFFF7D3FB4FF0A0424FF0A9
:104C0800A0439B6823F0005393604FF0A0424FF0FD
:104C1800A0439B6843F0805393600120FBF728FF73
:104C28004FF0A0424FF0A0439B6823F0804393606D
:104C38004FF0A0424FF0A0439B6843F000439360BD
:104C480000BF4FF0A0439B68002BFADB4FF0A04257
:104C58004FF0A0435B6843F0010353604FF0A0425C
:104C68004FF0A0435B6843F0040353604FF0A04249
:104C78004FF0A043DB6843F40053D3604FF0A042E9
:104C88004FF0A0439B6843F00103936000BF4FF0CF
:104C9800A0431B6803F00103002BF8D0A04AA04BE7
:104CA800DB6843F00103D3603620FFF7E1FA9C4A42
:104CB8009B4B1B6843F0010313609A4A994B1B6A8C
:104CC80043F010031362974A964B1B6843F00103A5
:104CD8001360FFF79FFB944B02221A60924B1B68EC
:104CE80019460620FFF724FB904B01221A60FFF7B4
:104CF80021FC8F4B1B688F4A13608D4B00221A6072
:104D08004FF47A70FBF7B4FEFFF7D4FB864B012211
:104D18001A60854B1B6819460620FFF709FB834B71
:104D280001221A60FFF706FC814B1B68824A136058
:104D38007F4B00221A604FF47A70FBF799FE7A4B8A
:104D480002221A60784B1B6819460620FFF7F0FA12
:104D5800764B01221A60FFF7EDFB754B1B68774A0B
:104D68001360734B00221A604FF47A70FBF780FED1
:104D7800734B02221A60FFF74DFB6B4B02221A603D
:104D8800694B1B6819460620FFF7D2FA674B0122C8
:104D98001A60FFF7CFFB664B1B686A4A1360644BC7
:104DA80000221A604FF47A70FBF762FEFFF782FB6D
:104DB8005D4B01221A605C4B1B6819460620FFF701
:104DC800B7FA5A4B01221A60FFF7B4FB584B1B681D
:104DD8005D4A1360564B00221A604FF47A70FBF755
:104DE80047FE514B02221A604F4B1B68194606209A
:104DF800FFF79EFA4D4B01221A60FFF79BFB4C4BC5
:104E08001B68524A13604A4B00221A604FF47A70AA
:104E1800FBF72EFE16E000237B604D4B1B6903F465
:104E28000073002B01D101237B604A4B1B781A4683
:104E38007B681340012B05D1464B00221A70464B64
:104E480001221A60444B1B68002BE4D0424B00221D
:104E58001A6000210120FFF74BFA01210020FFF71B
:104E680067FA01213120FFF743FAFFF7CFFD2E4BF8
:104E780001221A60394B01221A602B4B1B68184615
:104E8800FFF792FC2B4B1A68354B1B68D21A2A4B3A
:104E98001B6892FBF3F307EE903AF8EEE77A314B92
:104EA800C3ED007A2F4B93ED007ADFED2F6AC7EE42
:104EB800267A2C4BC3ED007A294B1B6807EE903AF3
:104EC800B8EEE77A274BD3ED007A77EE277A274BAF
:104ED800C3ED007A264B00221A60254B1B68184642
:104EE800FFF700FD144B1A6813461B019B1A9B0021
:104EF8001A46204B1A604CE00B4B1B681846FFF70C
:104F080053FCFFF7CDFD1A4B1A681A4B1B689A42DF
:104F180032DA174B1B681846FFF7E4FC2EE000BF97
:104F280000100040000400409C02002034020020D1
:104F3800280000202C0100205800002044010020F7
:104F480050000020280100203801002040010020E6
:104F580000080048380000203C0000209001002094
:104F6800880200202C00002000007042340000203D
:104F78003000002048000020FFF724FD934B93EDFC
:104F8800007A934BD3ED007A77EE277A8F4BC3EDF7
:104F9800007A904B1A68904B1B689A42ACDB8F4B97
:104FA8001B68013B8D4A13608C4B1B68002B37DD57
:104FB80002210120FFF7BCF901217420FFF798F9BD
:104FC80001217920FFF794F901213D20FFF790F99D
:104FD800824B1A6813461B019B1A9B001A46804B8A
:104FE8001A607D4B1B6807EE903AF8EEE77A774B2C
:104FF800C3ED007A7B4B00221A600BE0794B1B68EB
:105008001846FFF76FFC784B1B681846FFF7CCFB78
:10501800FFF746FD734B1A68714B1B689A42EDDB2C
:10502800724B1B68013B714A1360704B1B68002B65
:1050380000F3B38000210120FFF75AF90121002075
:10504800FFF776F901213220FFF752F9FFF7DEFC6E
:10505800654B01221A60664B01221A60624B1B687D
:105068001846FFF7A1FB614B1A685A4B1B68D11A07
:10507800604B1A6813461B019B1A9B0091FBF3F3C4
:1050880007EE903AF8EEE77A514BC3ED007A514BB0
:105098001B6807EE903AB8EEE77A4D4BD3ED007AED
:1050A80077EE277A494BC3ED007A524B1B68013BD8
:1050B800504A13604F4B1A6813461B019B1A9B00FA
:1050C8001A464D4B1A60474B00221A601EE0464BA9
:1050D8001B681846FFF768FBFFF704FCFFF7E0FCC6
:1050E800404B1A68444B1B689A4202DAFFF7FAFBF6
:1050F80001E0FFF767FC354B93ED007A344BD3EDB5
:10510800007A77EE277A314BC3ED007A314B1A6873
:10511800364B1B689A42DADB384B1B68013B374A2F
:105128001360364B1B68002B37DD02210120FFF787
:10513800FFF801217420FFF7DBF801217920FFF740
:10514800D7F801213D20FFF7D3F82C4B1A681346F6
:105158001B019B1A9B001A46214B1A60234B1B68A4
:1051680007EE903AF8EEE77A184BC3ED007A1D4B3C
:1051780000221A600BE01B4B1B681846FFF7B2FBB6
:10518800194B1B681846FFF70FFBFFF789FC154BF7
:105198001A68134B1B689A42EDDB00210120FFF7C8
:1051A800A7F801210120FFF7C3F801216520FFF7C7
:1051B8009FF801216E20FFF79BF801216420FFF77B
:1051C80097F8002318460837BD4680BD34000020F4
:1051D8002C000020880200202C010020440100201F
:1051E80044000020300000209C02002028010020FC
:1051F80090010020380100204800002040010020D4
:1052080080B596B000AF07F1300328220021184678
:1052180000F09CFC07F11C0300221A605A609A6097
:10522800DA601A613B4600221A605A609A60DA60B6
:105238001A615A619A6102233B6301233B6410237C
:105248007B640223FB6400233B654FF460137B659A
:1052580007F130031846FCF747FD0346002B01D041
:1052680000F024FA0F23FB6102233B6200237B62D8
:105278004FF48063BB620023FB6207F11C03022129
:105288001846FDF739FC0346002B01D000F00EFA52
:1052980080233B604FF480733B613B461846FDF723
:1052A80061FE0346002B01D000F000FA00BF58371A
:1052B800BD4680BD80B58AB000AF07F11C0300224F
:1052C8001A605A609A603B1D00221A605A609A6000
:1052D800DA601A615A612E4B4FF0A0421A602C4BCB
:1052E80000225A602A4B00229A60294B00221A6138
:1052F800274B00225A76264B002283F82020244B85
:105308000022DA62224B01229A62214B0022DA60E3
:105318001F4B0122DA611E4B002283F830201C4B00
:1053280004225A611A4B00221A76194B00225A633A
:105338001748FBF7BFFB0346002B01D000F0B6F976
:105348000023FB6107F11C0319461148FCF702F81A
:105358000346002B01D000F0A9F901237B6001234B
:10536800BB6000233B610023FB6000237B610023BB
:10537800BB613B1D19460648FBF72EFD0346002B73
:1053880001D000F093F900BF2837BD4680BD00BFAB
:10539800E401002080B58AB000AF07F11C030022A9
:1053A8001A605A609A603B4600221A605A609A60F6
:1053B800DA601A615A619A61214B224A1A60204BBD
:1053C80000225A601E4B00229A601D4B4FF6FF7256
:1053D800DA601B4B00221A61194B00229A611848A7
:1053E800FDF74DFF0346002B01D000F05FF90023C5
:1053F800FB6100237B6207F11C0319461048FEF786
:10540800C3FB0346002B01D000F050F960233B603A
:1054180000237B600023BB6000233B613B460422E2
:1054280019460748FDF782FF0346002B01D000F01C
:105438003DF9034800F004FA00BF2837BD4680BD97
:10544800980100200004004080B584B000AF3B1DE7
:1054580000221A605A609A60144B154A1A60134B5E
:105468004FF6FF125A60114B00229A600F4B96229A
:10547800DA600E4B00229A610C48FDF7A9FE03463C
:10548800002B01D000F012F900237B600023FB60A1
:105498003B1D19460548FEF777FB0346002B01D054
:1054A80000F004F900BF1037BD4680BD3C02002063
:1054B8000010004080B584B000AF3B1D00221A6088
:1054C8005A609A60154B164A1A60144B4FF6FF1231
:1054D8005A60124B00229A60104B4FF47A72DA60CD
:1054E8000E4B00229A610D48FDF772FE0346002B11
:1054F80001D000F0DBF800237B600023FB603B1D3C
:1055080019460648FEF740FB0346002B01D000F081
:10551800CDF800BF1037BD4680BD00BFA8020020EF
:105528000014004080B500AF154B164A1A60144BA2
:105538004FF416525A60124B00229A60104B002208
:10554800DA600F4B00221A610D4B0C225A610C4B8A
:1055580000229A610A4B0022DA61094B00221A6282
:10556800074B00225A620023002200210448FEF75C
:1055780018FE0346002B01D000F098F800BF80BD4C
:10558800A00000200048004080B582B000AF104A5B
:105598000F4B5B6943F0010353610D4B5B6903F0EB
:1055A80001037B607B68002200210C20FCF7D1F806
:1055B8000C20FCF7EAF8002200210D20FCF7C9F8BE
:1055C8000D20FCF7E2F800BF0837BD4680BD00BFDC
:1055D8000010024080B588B000AF07F10C0300222C
:1055E8001A605A609A60DA601A612D4A2C4B5B691E
:1055F80043F4002353612A4B5B6903F40023BB6027
:10560800BB68274A264B5B6943F400335361244B3C
:105618005B6903F400337B607B68214A204B5B693C
:1056280043F4802353611E4B5B6903F480233B6082
:105638003B6800220F211B48FCF73EFB0022FF219C
:105648001948FCF739FB0F23FB6001233B6100235A
:105658007B610023BB6107F10C0319461148FCF775
:10566800B9F9FF23FB6001233B6100237B61002321
:10567800BB6107F10C0319460B48FCF7ABF94FF473
:10568800F853FB6000233B6100237B6107F10C03A7
:1056980019460448FCF79EF900BF2037BD4680BD77
:1056A80000100240000800480004004880B400AF21
:1056B80000BFBD465DF8047B7047000080B582B02E
:1056C80000AF0F4A0E4B9B6943F0010393610C4BEB
:1056D8009B6903F001037B607B68094A084BDB691F
:1056E80043F08053D361064BDB6903F080533B6082
:1056F8003B680720FCF722F800BF0837BD4680BD8D
:105708000010024080B58AB000AF786007F114033A
:1057180000221A605A609A60DA601A617B681B6816
:10572800B3F1A04F24D1144A134B5B6943F0805363
:105738005361114B5B6903F080533B613B690E4A2F
:105748000D4B5B6943F4003353610B4B5B6903F406
:105758000033FB60FB6801237B610323BB610023EB
:10576800FB6107F1140319464FF09040FCF732F93A
:1057780000BF2837BD4680BD0010024080B485B008
:1057880000AF78607B681B680A4A93420BD10A4ACB
:10579800094BDB6943F00203D361074BDB6903F074
:1057A8000203FB60FB6800BF1437BD465DF8047B4D
:1057B800704700BF000400400010024080B584B06C
:1057C80000AF78607B681B681A4A934214D11A4A62
:1057D800194BDB6943F01003D361174BDB6903F006
:1057E8001003FB60FB68002200213620FBF7B1FFA5
:1057F8003620FBF7CAFF18E07B681B680F4A934204
:1058080013D10D4A0C4BDB6943F02003D3610A4BDB
:10581800DB6903F02003BB60BB680022002137204E
:10582800FBF797FF3720FBF7B0FF00BF1037BD46E7
:1058380080BD00BF0010004000100240001400406E
:1058480080B588B000AF786007F10C0300221A60B9
:105858005A609A60DA601A617B681B68114A934241
:105868001CD1114A104B5B6943F4003353610E4B52
:105878005B6903F40033BB60BB688023FB600223D1
:105888003B6100237B610023BB610223FB6107F1BD
:105898000C0319464FF09040FCF79CF800BF2037E6
:1058A800BD4680BD000400400010024080B58AB0AB
:1058B80000AF786007F1140300221A605A609A60FA
:1058C800DA601A617B681B683D4A934274D13D4A8D
:1058D8003C4BDB6943F48023D3613A4BDB6903F427
:1058E80080233B613B69374A364B5B6943F480232D
:1058F8005361344B5B6903F48023FB60FB684FF40E
:1059080098437B610223BB610023FB6103233B6255
:1059180007237B6207F1140319462B48FCF75AF852
:105928002A4B2B4A1A60294B00225A60274B002227
:105938009A60264B8022DA60244B00221A61234B9E
:1059480000225A61214B00229A61204B0022DA6121
:105958001E48FBF734FF0346002B01D0FFF7A6FED5
:105968007B681A4A1A67194A7B685362194B1A4AA4
:105978001A60184B10225A60164B00229A60154B79
:105988008022DA60134B00221A61124B00225A61FE
:10599800104B00229A610F4B0022DA610D48FBF789
:1059A8000EFF0346002B01D0FFF780FE7B68094AF3
:1059B800DA66084A7B68536200BF2837BD4680BD57
:1059C8000048004000100240000400485C0000202D
:1059D80030000240480100201C00024080B400AFA3
:1059E80000BFBD465DF8047B704780B400AFFEE79A
:1059F80080B400AFFEE780B400AFFEE780B400AF2C
:105A0800FEE780B400AF00BFBD465DF8047B704779
:105A180080B400AF00BFBD465DF8047B704780B41A
:105A280000AF00BFBD465DF8047B704780B500AF8E
:105A3800FAF7FEFF00BF80BD80B500AF0248FBF754
:105A480005FF00BF80BD00BF4801002080B500AF42
:105A58000248FBF7FBFE00BF80BD00BF5C000020D2
:105A680080B500AF044B1B6903F00103002B01D084
:105A7800FEF7ECFF00BF80BD0010004080B400AF0F
:105A880000BFBD465DF8047B7047000080B400AFDE
:105A9800064A064BD3F8883043F47003C2F88830BE
:105AA80000BFBD465DF8047B704700BF00ED00E015
:105AB800DFF834D00D480E490E4A002302E0D458CE
:105AC800C4500433C4188C42F9D30B4A0B4C00233E
